:100000000C9462000C948A000C948A000C948A0070
:100010000C948A000C948A000C948A000C948A0038
:100020000C948A000C948A000C948A000C94DC05D1
:100030000C948A000C948A000C948A000C948A0018
:100040000C9492050C948A000C9460050C943A056B
:100050000C948A000C948A000C948A000C948A00F8
:100060000C948A000C948A000000000024002700F1
:100070002A0000000000250028002B0000000008D6
:10008000000201000003040700000000000000005F
:1000900000000000230026002900040404040404D6
:1000A0000404020202020202030303030303010227
:1000B00004081020408001020408102001020408F6
:1000C0001020DD0611241FBECFEFD8E0DEBFCDBF6C
:1000D00011E0A0E0B1E0EAE9F7E102C005900D927D
:1000E000AE3AB107D9F722E0AEEAB1E001C01D9205
:1000F000AB39B207E1F710E0C2E6D0E004C02197C7
:10010000FE010E94C50BC136D107C9F70E946707DF
:100110000C94CB0B0C9400008F929F92AF92BF92E5
:10012000FF920F931F93CF93DF93F09080022BE009
:100130002F1508F44CC02091820208E512E0021B42
:10014000110927FD1395000F111F000F111F20919A
:100150008102C8E8D0E0C21BD10927FDD395CC0F9E
:10016000DD1FCC0FDD1F4E010D2E000CAA08BB08B1
:100170009801012E000C440B550B281939094A0926
:100180005B09DC010E944F0A24EB30E040E050E0C4
:100190000E94250A820E931EA41EB51E8C169D0673
:1001A0002CF0E801801691060CF4E4012297CC0FA4
:1001B000DD1F2FB7F8948F2D90E0FC01EE0FFF1F8D
:1001C000E80FF91FE55AFD4FD283C1832FBFDF919E
:1001D000CF911F910F91FF90BF90AF909F908F9004
:1001E0000895AF92BF92CF92DF92EF92FF920F935A
:1001F0001F93CF93DF936C017B018B01040F151FBD
:10020000EB015E01AE18BF08C017D10759F0699124
:10021000D601ED91FC910190F081E02DC601099588
:10022000892B79F7C501DF91CF911F910F91FF9035
:10023000EF90DF90CF90BF90AF900895FC01538D69
:10024000448D252F30E0842F90E0821B930B5417B0
:1002500010F0CF96089501970895FC01918D828D3D
:10026000981761F0A28DAE0FBF2FB11D5D968C91D6
:10027000928D9F5F9F73928F90E008958FEF9FEF15
:100280000895FC01918D828D981731F0828DE80FD1
:10029000F11D858D90E008958FEF9FEF0895FC018B
:1002A000918D228D892F90E0805C9F4F821B910958
:1002B0008F73992708958EEB91E00E944F0121E002
:1002C000892B09F420E0822F089580E090E0892BAB
:1002D00029F00E945B0181110C9400000895FC013B
:1002E000A48DA80FB92FB11DA35ABF4F2C91848D97
:1002F00090E001968F739927848FA689B7892C93F4
:10030000A089B1898C91837080648C93938D848D46
:10031000981306C00288F389E02D80818F7D808349
:100320000895EF92FF920F931F93CF93DF93EC0109
:1003300081E0888F9B8D8C8D98131AC0E889F9898C
:10034000808185FF15C09FB7F894EE89FF8960838F
:10035000E889F98980818370806480839FBF81E010
:1003600090E0DF91CF911F910F91FF90EF90089552
:10037000F62E0B8D10E00F5F1F4F0F731127E02E2D
:100380008C8D8E110CC00FB607FCFACFE889F98965
:10039000808185FFF5CFCE010E946F01F1CFEB8DFB
:1003A000EC0FFD2FF11DE35AFF4FF0829FB7F89439
:1003B0000B8FEA89FB8980818062CFCFCF93DF9357
:1003C000EC01888D8823B9F0AA89BB89E889F9896D
:1003D0008C9185FD03C0808186FD0DC00FB607FCA2
:1003E000F7CF8C9185FFF2CF808185FFEDCFCE01D5
:1003F0000E946F01E9CFDF91CF910895833081F0A2
:1004000028F4813099F08230A9F008958730A9F05E
:100410008830C9F08430B1F4809180008F7D03C0B2
:10042000809180008F7780938000089584B58F77C6
:1004300084BD089584B58F7DFBCF8091B0008F7708
:100440008093B00008958091B0008F7DF9CFCF9355
:10045000DF93282F30E0F901E458FF4F8491F90130
:10046000E255FF4FD491F901E656FF4FC491CC23DA
:10047000A1F081110E94FE01EC2FF0E0EE0FFF1FB2
:10048000E057FF4FA591B491EC91ED2381E090E00E
:1004900009F480E0DF91CF91089580E090E0FACFF9
:1004A0001F93CF93DF93282F30E0F901E458FF4FDB
:1004B0008491F901E255FF4FD491F901E656FF4FBF
:1004C000C491CC23A9F0162F81110E94FE01EC2FBC
:1004D000F0E0EE0FFF1FEE58FF4FA591B4918FB7DC
:1004E000F894EC91111108C0D095DE23DC938FBFF6
:1004F000DF91CF911F910895DE2BF8CFCF93DF933B
:1005000090E0FC01E255FF4F249186569F4FFC017D
:1005100084918823D1F090E0880F991FFC01E8595D
:10052000FF4FA591B491FC01EE58FF4FC591D491B6
:1005300061110EC09FB7F8948C91E22FE0958E2345
:100540008C932881E223E8839FBFDF91CF910895A8
:100550008FB7F894EC91E22BEC938FBFF6CF3FB7B7
:10056000F8948091B4019091B501A091B601B09139
:10057000B70126B5A89B05C02F3F19F00196A11D14
:10058000B11D3FBFBA2FA92F982F8827BC01CD01DD
:10059000620F711D811D911D42E0660F771F881F3C
:1005A000991F4A95D1F708958F929F92AF92BF926B
:1005B000CF92DF92EF92FF924B015C010E94AF025B
:1005C0006B017C010E94AF026C197D098E099F09A5
:1005D000683E734081059105A8F321E0821A9108D5
:1005E000A108B10888EEC80E83E0D81EE11CF11CFA
:1005F00081149104A104B10429F7FF90EF90DF90DA
:10060000CF90BF90AF909F908F900895089590E005
:1006100080E0089560E083E00E94500260E082E0A4
:100620000E94500260E08EE00E94500260E082E092
:100630000C94500261E083E00E94500260E082E08E
:100640000E94500261E08EE00E94500260E082E071
:100650000C945002CF93DF93EC0160E08E810E94F6
:10066000500261E08E810E94500260E08E810E9403
:1006700050028BE891E00197F1F7DF91CF91089557
:10068000CF92DF92EF92FF920F931F93CF93DF935E
:100690006C017C0187E0E80EF11CD0E0C0E0062F81
:1006A00010E0B8010C2E02C0759567950A94E2F728
:1006B0006170F70181917F010E9450022196C43040
:1006C000D10579F7C601DF91CF911F910F91FF906E
:1006D000EF90DF90CF900C942A03CF92DF92EF92AD
:1006E000FF920F931F93CF93DF93EC01F62E642FAD
:1006F0008C810E9450028D818F3F19F060E00E9432
:1007000050020F2D10E08F8584FF25C06E0187E019
:10071000C80ED11CF12CE12CB8010E2C02C075952D
:1007200067950A94E2F76170F60181916F010E946A
:100730005002FFEFEF1AFF0A88E0E816F10461F7B4
:10074000CE01DF91CF911F910F91FF90EF90DF903D
:10075000CF900C942A03B80184E0759567958A952B
:10076000E1F7CE010E9440036F2DCE01DF91CF91C2
:100770001F910F91FF90EF90DF90CF900C9440036A
:1007800040E0682F83E892E00C946D0381E00E94C2
:10079000C0038BE39FE10197F1F70895CF93DF93B7
:1007A000823029F490919202986090939202809303
:1007B00096021092970280E48093980280E18093E1
:1007C000990280E580939A0261E0809187020E94FD
:1007D0007E02809188028F3F19F061E00E947E02C4
:1007E00061E0809189020E947E02C3E8D2E09E010E
:1007F000235832408091920284FD0BC084E090E047
:1008000021962817390744F461E08E810E947E0208
:10081000EECF88E090E0F4CF8BE39DE00197F1F715
:1008200060E0809187020E94500260E0809189021E
:100830000E945002809188028F3F19F060E00E9470
:1008400050028091920284FD34C063E083E892E01C
:100850000E944003CBE4D6E4CE010197F1F763E0B8
:1008600083E892E00E9440032197F1F763E083E878
:1008700092E00E94400383E592E00197F1F762E085
:1008800083E892E00E9440038091920280620E947D
:10089000C00384E0809393028CE00E94C0030E9416
:1008A000C60382E08093940286E0DF91CF910C949E
:1008B000C00380620E94C0038BE496E40197F1F7C5
:1008C0008091920280620E94C00383E592E00197CA
:1008D000F1F78091920280620E94C003D5CF90917F
:1008E0009602691710F06FEF690FE62FF0E0ED57F1
:1008F000FD4F9489890F80680C94C00341E00E94E9
:100900006D0381E090E008950F931F9390E0FC0148
:10091000E255FF4F6491FC01E656FF4FE491F0E091
:10092000EE0FFF1FE057FF4F8591949100E412E412
:100930002FE030E0462F0E94980661157105810571
:10094000910529F06F5F7F4F8F4F9F4F9F701F91D1
:100950000F910895FB0101900020E9F73197AF0155
:10096000461B570BDC01ED91FC910280F381E02DD9
:1009700009948F929F92AF92BF92EF92FF920F9342
:100980001F93CF93DF93CDB7DEB7A1970FB6F8943F
:10099000DEBF0FBECDBF7C01FA01CB0119A2223010
:1009A00008F42AE08E010F5D1F4F822E912CB12C8E
:1009B000A12CBF01A50194010E94570AF901CA01A7
:1009C0006A300CF5605DD8016E938D01232B242BCA
:1009D000252B79F790E080E0109721F0BD01C70149
:1009E0000E94AA04A1960FB6F894DEBF0FBECDBF39
:1009F000DF91CF911F910F91FF90EF90BF90AF903B
:100A00009F908F900895695CDECFCF92DF92EF9236
:100A1000FF920F931F93CF93DF93EC016A017B0149
:100A2000E881F9810190F081E02D6DE209958C015A
:100A300044275527BA014C195D096E097F092AE040
:100A4000CE010E94B904800F911FDF91CF911F91B9
:100A50000F91FF90EF90DF90CF900895AB01770F4B
:100A6000660B770B77FD0C9405052AE00C94B9040E
:100A70000C94AA041F920F920FB60F9211242F9379
:100A80003F934F935F936F937F938F939F93AF9316
:100A9000BF93EF93FF938EEB91E00E946F01FF9164
:100AA000EF91BF91AF919F918F917F916F915F91E6
:100AB0004F913F912F910F900FBE0F901F9018955F
:100AC0001F920F920FB60F9211242F938F939F9323
:100AD000EF93FF93E091CE01F091CF018081E091FF
:100AE000D401F091D50182FD1BC090818091D70186
:100AF0008F5F8F732091D801821741F0E091D70169
:100B0000F0E0E254FE4F958F8093D701FF91EF9173
:100B10009F918F912F910F900FBE0F901F9018955E
:100B20008081F4CF1F920F920FB60F9211242F9352
:100B30003F938F939F93AF93BF938091B001909118
:100B4000B101A091B201B091B3013091AF0123E0A6
:100B5000230F2D3758F50196A11DB11D2093AF012C
:100B60008093B0019093B101A093B201B093B3010F
:100B70008091B4019091B501A091B601B091B701F7
:100B80000196A11DB11D8093B4019093B501A0936E
:100B9000B601B093B701BF91AF919F918F913F91F3
:100BA0002F910F900FBE0F901F90189526E8230FDE
:100BB0000296A11DB11DD2CF1F920F920FB60F92B8
:100BC00011242F933F934F935F936F937F938F9352
:100BD0009F93AF93BF93CF93DF93EF93FF93809156
:100BE000AE01C0917F02D0E087FF24C01092850043
:100BF000109284008091AE018F5F8093AE0180914E
:100C0000AE01082E000C990B8C179D0724F48091DF
:100C1000AE018C30C4F180918400909185000496DF
:100C200080349C4908F47AC08091840090918500BA
:100C3000049676C08091AE01082E000C990B8C179B
:100C40009D07C4F6E091AE018E2FEE0F990BFC01CB
:100C5000EE0FFF1FE80FF91FE55AFD4F808186FF59
:100C6000C9CFE091AE018E2FEE0F990BFC01EE0F74
:100C7000FF1FE80FF91FE55AFD4F808160E08F7379
:100C80000E945002B7CF2091840030918500E091FE
:100C9000AE018E2FEE0F990BFC01EE0FFF1FE80F38
:100CA000F91FE55AFD4F81819281820F931F909326
:100CB000890080938800E091AE018E2FEE0F990B92
:100CC000FC01EE0FFF1FE80FF91FE55AFD4F808171
:100CD00086FF11C0E091AE018E2FEE0F990BFC0143
:100CE000EE0FFF1FE80FF91FE55AFD4F808161E00D
:100CF0008F730E945002FF91EF91DF91CF91BF91CE
:100D0000AF919F918F917F916F915F914F913F91A3
:100D10002F910F900FBE0F901F90189580E49CE9C3
:100D200090938900809388008FEF8093AE01E3CF8A
:100D3000CF92DF92EF92FF920F931F93E82FF92F3C
:100D400005C0015011092109310961F190819623F3
:100D50009417B9F305C0015011092109310911F1A6
:100D6000908196239413F7CFC12CD12CE12CF12C38
:100D70000AC08FEFC81AD80AE80AF80A0C151D0530
:100D80002E053F0579F080818623841791F36C2D21
:100D90007D2D8E2D9F2D1F910F91FF90EF90DF9055
:100DA000CF90089560E070E080E090E01F910F9197
:100DB000FF90EF90DF90CF900895CF931092C101F4
:100DC0001092C00188EE93E0A0E0B0E08093C201F1
:100DD0009093C301A093C401B093C50184E091E056
:100DE0009093BF018093BE0185EC90E09093CB017E
:100DF0008093CA0184EC90E09093CD018093CC0164
:100E000080EC90E09093CF018093CE0181EC90E054
:100E10009093D1018093D00182EC90E09093D30124
:100E20008093D20186EC90E09093D5018093D40119
:100E30001092D7011092D8011092D9011092DA01C4
:100E4000109286021092850286E191E090938402CE
:100E5000809383028DE080938702CFEFC093880256
:100E60008CE0809389028BE080938A028AE08093F1
:100E70008B0289E080938C0288E080938D0210922F
:100E80008E0210928F021092900210929102109294
:100E9000920281E00E94CE0380917F028C30A0F408
:100EA00091E0980F90937F028093800290E0FC0184
:100EB000EE0FFF1FE80FF91FE55AFD4F88EB9BE08F
:100EC00092838183CF910895C0938002FBCF789461
:100ED00084B5826084BD84B5816084BD85B582603F
:100EE00085BD85B5816085BD80916E0081608093F0
:100EF0006E00109281008091810082608093810059
:100F00008091810081608093810080918000816068
:100F1000809380008091B10084608093B1008091C3
:100F2000B00081608093B00080917A0084608093EB
:100F30007A0080917A00826080937A0080917A00B2
:100F4000816080937A0080917A00806880937A0033
:100F50001092C10061E085E00E947E0260E084E0C2
:100F60000E947E0261E086E00E947E0260E087E0EF
:100F70000E947E0260E081E10E947E0260E080E1EA
:100F80000E947E0261E083E00E947E0261E082E0D6
:100F90000E947E0261E08EE00E947E0261E08FE0AE
:100FA0000E947E02809180028C3008F051C061E086
:100FB00082E10E947E0280918002282F30E0F901B8
:100FC000EE0FFF1FE20FF31FE55AFD4F9081907C5B
:100FD0009261908310928102109282022CE0622F23
:100FE0000E94B90B829FB001112430E020E0AB01D8
:100FF000420F531FFA01EE0FFF1FE40FF51FE55AD2
:10100000FD4F908196FD16C02F5F3F4F2C3031056C
:1010100071F781110FC01092800082E080938100EF
:101020001092850010928400B19A80916F008260C6
:1010300080936F00E09180028E2F90E0FC01EE0F14
:10104000FF1FE80FF91FE55AFD4F80818064808300
:1010500090E080E00E948C00E091CE01F091CF0101
:1010600082E08083E091CA01F091CB011082E0918F
:10107000CC01F091CD018FEC80831092D601E091EC
:10108000D201F091D30186E08083E091D001F0910C
:10109000D101808180618083E091D001F091D10104
:1010A000808188608083E091D001F091D1018081BE
:1010B00080688083E091D001F091D10180818F7DA3
:1010C000808382E00E94CE0360E080E00E946F0493
:1010D0006EE171E083E892E00E94380561E080E013
:1010E0000E946F046AE271E083E892E00E94380592
:1010F00068E873E180E090E00E94D4020E94C60399
:101100006AE070E080E090E00E94D402C0E0D0E0AD
:101110000E941A0380E10E9427027C0181E10E9463
:1011200027028C0160E085E00E9450026AE070E0D6
:1011300080E090E00E94D40261E085E00E945002CD
:1011400064E670E080E090E00E94D40260E085E018
:101150000E94500284E00E9484047093BD01609359
:10116000BC0160E086E00E9450026AE070E080E02E
:1011700090E00E94D40261E086E00E94500264E6A2
:1011800070E080E090E00E94D40260E086E00E947F
:10119000500287E00E9484044B016091BC01709171
:1011A000BD01072E000C880B990B0E94C00A26E98E
:1011B00033E44BE85CE30E94240B0E94880A70939E
:1011C000BB016093BA01B401990C880B990B0E9482
:1011D000C00A26E933E44BE85CE30E94240B0E943A
:1011E000880A7093B9016093B8016AE371E08EEBED
:1011F00091E00E9438056091BA017091BB018EEBBD
:1012000091E00E942E056EE471E08EEB91E00E9469
:1012100038054091B8015091B901052E000C660BBC
:10122000770B77FF0CC18EEB91E00E94050566E617
:1012300071E08EEB91E00E94AA040E94C6036AE06E
:1012400070E080E090E00E94D40260E080E00E94C4
:101250006F0469E671E083E892E00E94380560E07F
:1012600086E00E946F046091BA017091BB0183E82F
:1012700092E00E942E0561E080E00E946F046DE61E
:1012800071E083E892E00E94380561E086E00E9408
:101290006F046091B8017091B90183E892E00E94F7
:1012A0002E0564EF71E080E090E00E94D40280910E
:1012B000BA019091BB0189978D36910510F50E9476
:1012C000C6036AE070E080E090E00E94D4020E94D1
:1012D0000A0360E080E00E946F0461E771E083E848
:1012E00092E00E94380560ED77E080E090E00E9497
:1012F000D4020E94C6036AE070E080E090E00E94A1
:10130000D4028091B8019091B90189978D369105E9
:1013100010F50E94C6036AE070E080E090E00E9451
:10132000D4020E940A0360E080E00E946F0463E838
:1013300071E083E892E00E94380564EC79E080E097
:1013400090E00E94D4020E94C6036AE070E080E050
:1013500090E00E94D402EA94EF2811F50E94C6039F
:101360006AE070E080E090E00E94D4020E941A03DC
:1013700060E080E00E946F0465E971E083E892E03C
:101380000E94380560ED77E080E090E00E94D40292
:101390000E94C6036AE070E080E090E00E94D40200
:1013A0000130110509F040C00E94C6036AE070E0F8
:1013B00080E090E00E94D4020E940A0360E080E096
:1013C0000E946F0464EA71E083E892E00E943805AD
:1013D00060ED77E080E090E00E94D40210E000E051
:1013E000C8010E948C0062E370E080E090E00E94FF
:1013F000D4020F5F1F4F0B35110591F70AE510E07E
:10140000C8010E948C0062E370E080E090E00E94DE
:10141000D40201501109A1F70E94C6036AE070E0EE
:1014200080E090E00E94D402209709F471CE0E94DF
:101430005B01882309F46CCE0E94000069CE2AE08B
:101440008EEB91E00E94B904F2CE052E97FB1EF4BC
:1014500000940E943C0A57FD07D00E94570A07FCDF
:1014600003D04EF40C943C0A50954095309521954C
:101470003F4F4F4F5F4F08959095809570956195C0
:101480007F4F8F4F9F4F08950E94790AA59F900D1F
:10149000B49F900DA49F800D911D11240895B7FF56
:1014A0000C94440A0E94440A821B930B0895A1E203
:1014B0001A2EAA1BBB1BFD010DC0AA1FBB1FEE1FCE
:1014C000FF1FA217B307E407F50720F0A21BB30B19
:1014D000E40BF50B661F771F881F991F1A9469F795
:1014E00060957095809590959B01AC01BD01CF01F1
:1014F0000895A29FB001B39FC001A39F700D811DED
:101500001124911DB29F700D811D1124911D08950C
:101510000E948F0A6894B1110C941E0B08950E94CA
:10152000030B88F09F5798F0B92F9927B751B0F067
:10153000E1F0660F771F881F991F1AF0BA95C9F757
:1015400014C0B13091F00E941D0BB1E008950C94CD
:101550001D0B672F782F8827B85F39F0B93FCCF380
:10156000869577956795B395D9F73EF490958095D4
:10157000709561957F4F8F4F9F4F0895E89409C0F4
:1015800097FB3EF490958095709561957F4F8F4FB6
:101590009F4F9923A9F0F92F96E9BB279395F695CC
:1015A000879577956795B795F111F8CFFAF4BB0F4A
:1015B00011F460FF1BC06F5F7F4F8F4F9F4F16C0AE
:1015C000882311F096E911C0772321F09EE8872F38
:1015D000762F05C0662371F096E8862F70E060E0F4
:1015E0002AF09A95660F771F881FDAF7880F96956D
:1015F000879597F9089557FD9058440F551F59F056
:101600005F3F71F04795880F97FB991F61F09F3FEF
:1016100079F087950895121613061406551FF2CF18
:101620004695F1DF08C0161617061806991FF1CF68
:1016300086957105610508940895E894BB2766278F
:101640007727CB0197F908950E94370B0C94A80BCC
:101650000E949A0B38F00E94A10B20F0952311F004
:101660000C94910B0C94970B11240C941E0B0E945C
:10167000FB0A70F3959FC1F3950F50E0551F629FD1
:10168000F001729FBB27F00DB11D639FAA27F00DDB
:10169000B11DAA1F649F6627B00DA11D661F829F02
:1016A0002227B00DA11D621F739FB00DA11D621FE7
:1016B000839FA00D611D221F749F3327A00D611D04
:1016C000231F849F600D211D822F762F6A2F1124E6
:1016D0009F5750409AF0F1F088234AF0EE0FFF1F19
:1016E000BB1F661F771F881F91505040A9F79E3F70
:1016F000510580F00C94910B0C941E0B5F3FE4F3AA
:10170000983ED4F3869577956795B795F795E795C5
:101710009F5FC1F7FE2B880F911D9695879597F9CE
:10172000089597F99F6780E870E060E008959FEF63
:1017300080EC089500240A94161617061806090668
:10174000089500240A941216130614060506089537
:10175000092E0394000C11F4882352F0BB0F40F4BF
:10176000BF2B11F460FF04C06F5F7F4F8F4F9F4FFF
:101770000895991B79E004C0991F961708F0961BED
:10178000881F7A95C9F780950895EE0FFF1F059081
:0A179000F491E02D0994F894FFCFC6
:10179A00000000009101F1001E01DE014F012D0140
:1017AA004101000000007E04F1000703060377658B
:1017BA006C636F6D6520746F2000452D77617374BB
:1017CA006520636F6C6C6563740020556C7472617C
:1017DA00736F6E69632073656E736F723100207C5C
:1017EA007C2020556C747261736F6E696320736517
:1017FA006E736F7232000D0A0053313A0053323A57
:10180A0000452D77617374652066696C6C65642E7A
:10181A002E21004E6F726D616C20572066696C6CC8
:10182A0065642E21004E6F726D616C20576173746E
:0E183A00652E2E00452D57617374652E2E000D
:107E0000112484B714BE81FFF0D085E080938100F7
:107E100082E08093C00088E18093C10086E0809377
:107E2000C20080E18093C4008EE0C9D0259A86E02C
:107E300020E33CEF91E0309385002093840096BBD3
:107E4000B09BFECF1D9AA8958150A9F7CC24DD24C4
:107E500088248394B5E0AB2EA1E19A2EF3E0BF2EE7
:107E6000A2D0813461F49FD0082FAFD0023811F036
:107E7000013811F484E001C083E08DD089C08234E0
:107E800011F484E103C0853419F485E0A6D080C0E4
:107E9000853579F488D0E82EFF2485D0082F10E0AE
:107EA000102F00270E291F29000F111F8ED06801E7
:107EB0006FC0863521F484E090D080E0DECF843638
:107EC00009F040C070D06FD0082F6DD080E0C81688
:107ED00080E7D80618F4F601B7BEE895C0E0D1E017
:107EE00062D089930C17E1F7F0E0CF16F0E7DF06D8
:107EF00018F0F601B7BEE89568D007B600FCFDCFD4
:107F0000A601A0E0B1E02C9130E011968C91119780
:107F100090E0982F8827822B932B1296FA010C0160
:107F200087BEE89511244E5F5F4FF1E0A038BF0790
:107F300051F7F601A7BEE89507B600FCFDCF97BE46
:107F4000E89526C08437B1F42ED02DD0F82E2BD052
:107F50003CD0F601EF2C8F010F5F1F4F84911BD097
:107F6000EA94F801C1F70894C11CD11CFA94CF0C13
:107F7000D11C0EC0853739F428D08EE10CD085E9AC
:107F80000AD08FE07ACF813511F488E018D01DD067
:107F900080E101D065CF982F8091C00085FFFCCF94
:107FA0009093C60008958091C00087FFFCCF809118
:107FB000C00084FD01C0A8958091C6000895E0E648
:107FC000F0E098E1908380830895EDDF803219F02E
:107FD00088E0F5DFFFCF84E1DECF1F93182FE3DFCA
:107FE0001150E9F7F2DF1F91089580E0E8DFEE27F6
:047FF000FF270994CA
:027FFE00040479
:0400000300007E007B
:00000001FF
